:020000020000FC
:100000003AC018951895189518951895189518953B
:10001000189518951895A4C378C318951895189530
:100020001895189518950E0A0A0A0E0C0404040E69
:100030000E020E080E0E020E020E0A0A0E02020E2A
:10004000080E020E0E080E0A0E0E020202020E0A20
:100050000E0A0E0E0A0E020ECE4A4A4AEECC444456
:1000600044EECE424E48EECE424E42EECA4A4E4298
:10007000E2CE484E42EE0FED0DBF00E808B900E2B7
:100080000BBF01E000BD00E305BF78948895B099EF
:10009000F2CFF89404EF01BB04E002BB0EEF07BB04
:1000A00000E008BB00E805BF02E80FBD01E00BBDA2
:1000B0000AEE0ABD00E009BD0CE008BD01E005BD87
:1000C0000EEF04BD00E209BF09E10EBDE0E6F0E07D
:1000D00000270083038302830FEF0183CC27DD27F2
:1000E000CDBDCCBD05B7006205BF7894E8C1BC2F7B
:1000F000B395BD3E08F0E5C108BA000C08BA000C83
:1001000008BA000C08BA000C08BA000C08BA000CB7
:1001100008BA000C08BA002418BA110C18BA110C4D
:1001200018BA110C18BA110C18BA110C18BA110C13
:1001300018BA110C18BA112428BA220C28BA220CA9
:1001400028BA220C28BA220C28BA220C28BA220C6F
:1001500028BA220C28BA222438BA330C38BA330C05
:1001600038BA330C38BA330C38BA330C38BA330CCB
:1001700038BA330C38BA332448BA440C48BA440C61
:1001800048BA440C48BA440C48BA440C48BA440C27
:1001900048BA440C48BA442458BA550C58BA550CBD
:1001A00058BA550C58BA550C58BA550C58BA550C83
:1001B00058BA550C58BA552468BA660C68BA660C19
:1001C00068BA660C68BA660C68BA660C68BA660CDF
:1001D00068BA660C68BA662478BA770C78BA770C75
:1001E00078BA770C78BA770C78BA770C78BA770C3B
:1001F00078BA770C78BA772488BA880C88BA880CD1
:1002000088BA880C88BA880C88BA880C88BA880C96
:1002100088BA880C88BA882498BA990C98BA990C2C
:1002200098BA990C98BA990C98BA990C98BA990CF2
:1002300098BA990C98BA9924A8BAAA0CA8BAAA0C88
:10024000A8BAAA0CA8BAAA0CA8BAAA0CA8BAAA0C4E
:10025000A8BAAA0CA8BAAA24B8BABB0CB8BABB0CE4
:10026000B8BABB0CB8BABB0CB8BABB0CB8BABB0CAA
:10027000B8BABB0CB8BABB24C8BACC0CC8BACC0C40
:10028000C8BACC0CC8BACC0CC8BACC0CC8BACC0C06
:10029000C8BACC0CC8BACC24D8BADD0CD8BADD0C9C
:1002A000D8BADD0CD8BADD0CD8BADD0CD8BADD0C62
:1002B000D8BADD0CD8BADD24E8BAEE0CE8BAEE0CF8
:1002C000E8BAEE0CE8BAEE0CE8BAEE0CE8BAEE0CBE
:1002D000E8BAEE0CE8BAEE24F8BAFF0CF8BAFF0C54
:1002E000F8BAFF0CF8BAFF0CF8BAFF0CF8BAFF0C1A
:1002F000F8BAFF0CF8BAFF2408BB000F08BB000FC8
:1003000008BB000F08BB000F08BB000F08BB000FA5
:1003100008BB000F08BB002718BB110F18BB110F3B
:1003200018BB110F18BB110F18BB110F18BB110F01
:1003300018BB110F18BB112728BB220F28BB220F97
:1003400028BB220F28BB220F28BB220F28BB220F5D
:1003500028BB220F28BB222738BB330F38BB330FF3
:1003600038BB330F38BB330F38BB330F38BB330FB9
:1003700038BB330F38BB332748BB440F48BB440F4F
:1003800048BB440F48BB440F48BB440F48BB440F15
:1003900048BB440F48BB442758BB550F58BB550FAB
:1003A00058BB550F58BB550F58BB550F58BB550F71
:1003B00058BB550F58BB552768BB660F68BB660F07
:1003C00068BB660F68BB660F68BB660F68BB660FCD
:1003D00068BB660F68BB662778BB770F78BB770F63
:1003E00078BB770F78BB770F78BB770F78BB770F29
:1003F00078BB770F78BB772778BBBA3010F0B13E67
:10040000C8F07FEF672F572F472F372F272F172F32
:10041000072FF72EE72ED72EC72EB72EA72E972EF3
:10042000872E772E672E572E472E372E272E172EE4
:10043000072E45C0B4FBC7F880916600B81758F086
:10044000885F8B1740F0FF27E0916800A09169005A
:10045000A083A095A18380916400B81720F08C5EE2
:100460008B1708F0109480916500B81720F08C5E0F
:100470008B1708F06095EB2FBC51B43100F5E69571
:10048000E695E859FF27B0EFAFE0808187FD7B2A32
:1004900086FD7A2A85FD8B2A83FD9B2A82FD9A2A76
:1004A00081FDAB2A858187FDDA2A86FDEB2A85FD51
:1004B000EA2A83FDFA2A82FD0B2B81FD0A2B8895FF
:1004C00016CECC3EF1F7A2ECAFBD8895CF3EE9F752
:1004D000A2E8AFBDE0E6F0E08381803029F0813012
:1004E000A9F0823051F194C07727748775877481A1
:1004F0007170768762E070FD6195628775817170B9
:1005000061E070FD6195638781E088C066857481D4
:1005100060FD75817A5F768378E160FD70EA7783AC
:10052000728562E077FD619562877281772309F4B5
:1005300075C07727728382E071C05681052F095FED
:1005400017812285D384E4803E2D3D5EF5804F2DBA
:100550004D5E5D0D0D0D120F5A3011F0013E19F573
:10056000D194D7E063E0608334C0752F7C5F761B45
:10057000723034F07830B4F07C305CF0723194F04A
:1005800027FB27FD2195223008F026950EF42195B2
:10059000089527FB27FD2195283008F4220F0EF43B
:1005A000219508950895103141F40E1530F0351756
:1005B00020F021956E2DD9DF09C0183A51F40F159E
:1005C00040F0451730F021956F2DCFDFDFE066E07A
:1005D0006083568317832287D3867781703041F4F6
:1005E0007585739575877F3089F071E0768709C0CE
:1005F000783BA1F47485739574877F3039F070E08F
:10060000768781E0D1E072E0708308C083E0FACFA2
:100610007281772319F07727728380E08383778153
:10062000672F6695669566958FEF777019F08695BA
:100630007A95FCCF608781878081882309F4DD2744
:100640008A958083728181818F3F29F4B09B1FC07E
:10065000839577271CC0882319F4B09B839517C016
:10066000853020F48395B099882711C08A3F30F4F3
:100670008395B09B0CC0882771E009C0F894882747
:100680008FBD8EBD87BB88BB81BB82BBF4CC728320
:10069000818375B37A3010F47AE003C07D3C08F0B2
:1006A0007DEC74837CB77A3010F47AE003C07D3C33
:1006B00008F07DEC75838485682F660F660F680FE0
:1006C000E6E2F0E0E60F08F4F395AFE6B0E075E09F
:1006D000649131966D937A95D9F780916D00682F6A
:1006E000660F660F680FE6E2F0E0E60F08F4F39598
:1006F000A4E7B0E075E0649131966D937A95D9F7EF
:100700008895CF3FE9F78895F2CCC3959C2F9D2320
:1007100092B3F1F4D0FD905C9C5F9777C530D0F038
:100720009F7C92BB809B09C093B3939593BB819BA5
:100730000CC094B3939594BB189593B395BB819BD0
:1007400004C094B3939594BB189594B39CBF18952B
:100750009C5FE4CF906392BB992793BB94BB1895A1
:0A076000662765BF6BBF60BD1895EA
:00000001FF
